{
  "abi": [
    {
      "type": "constructor",
      "inputs": [
        {
          "name": "_oracle",
          "type": "address",
          "internalType": "address"
        }
      ],
      "stateMutability": "nonpayable"
    },
    {
      "type": "function",
      "name": "BACKR_SCORE_KEY",
      "inputs": [],
      "outputs": [
        {
          "name": "",
          "type": "string",
          "internalType": "string"
        }
      ],
      "stateMutability": "view"
    },
    {
      "type": "function",
      "name": "BACKR_STATUS_KEY",
      "inputs": [],
      "outputs": [
        {
          "name": "",
          "type": "string",
          "internalType": "string"
        }
      ],
      "stateMutability": "view"
    },
    {
      "type": "function",
      "name": "ENS_REGISTRY",
      "inputs": [],
      "outputs": [
        {
          "name": "",
          "type": "address",
          "internalType": "contract IENSRegistry"
        }
      ],
      "stateMutability": "view"
    },
    {
      "type": "function",
      "name": "STATUS_CLEARED",
      "inputs": [],
      "outputs": [
        {
          "name": "",
          "type": "string",
          "internalType": "string"
        }
      ],
      "stateMutability": "view"
    },
    {
      "type": "function",
      "name": "STATUS_DEFAULTED",
      "inputs": [],
      "outputs": [
        {
          "name": "",
          "type": "string",
          "internalType": "string"
        }
      ],
      "stateMutability": "view"
    },
    {
      "type": "function",
      "name": "STATUS_GOOD",
      "inputs": [],
      "outputs": [
        {
          "name": "",
          "type": "string",
          "internalType": "string"
        }
      ],
      "stateMutability": "view"
    },
    {
      "type": "function",
      "name": "backrOracle",
      "inputs": [],
      "outputs": [
        {
          "name": "",
          "type": "address",
          "internalType": "address"
        }
      ],
      "stateMutability": "view"
    },
    {
      "type": "function",
      "name": "clearDefault",
      "inputs": [
        {
          "name": "user",
          "type": "address",
          "internalType": "address"
        }
      ],
      "outputs": [],
      "stateMutability": "nonpayable"
    },
    {
      "type": "function",
      "name": "getCreditScore",
      "inputs": [
        {
          "name": "user",
          "type": "address",
          "internalType": "address"
        }
      ],
      "outputs": [
        {
          "name": "",
          "type": "uint256",
          "internalType": "uint256"
        }
      ],
      "stateMutability": "view"
    },
    {
      "type": "function",
      "name": "getDefaultCount",
      "inputs": [
        {
          "name": "user",
          "type": "address",
          "internalType": "address"
        }
      ],
      "outputs": [
        {
          "name": "",
          "type": "uint256",
          "internalType": "uint256"
        }
      ],
      "stateMutability": "view"
    },
    {
      "type": "function",
      "name": "isCurrentlyDefaulted",
      "inputs": [
        {
          "name": "user",
          "type": "address",
          "internalType": "address"
        }
      ],
      "outputs": [
        {
          "name": "",
          "type": "bool",
          "internalType": "bool"
        }
      ],
      "stateMutability": "view"
    },
    {
      "type": "function",
      "name": "isRegistered",
      "inputs": [
        {
          "name": "user",
          "type": "address",
          "internalType": "address"
        }
      ],
      "outputs": [
        {
          "name": "",
          "type": "bool",
          "internalType": "bool"
        }
      ],
      "stateMutability": "view"
    },
    {
      "type": "function",
      "name": "markDefault",
      "inputs": [
        {
          "name": "user",
          "type": "address",
          "internalType": "address"
        }
      ],
      "outputs": [],
      "stateMutability": "nonpayable"
    },
    {
      "type": "function",
      "name": "owner",
      "inputs": [],
      "outputs": [
        {
          "name": "",
          "type": "address",
          "internalType": "address"
        }
      ],
      "stateMutability": "view"
    },
    {
      "type": "function",
      "name": "registerENS",
      "inputs": [
        {
          "name": "ensNode",
          "type": "bytes32",
          "internalType": "bytes32"
        }
      ],
      "outputs": [],
      "stateMutability": "nonpayable"
    },
    {
      "type": "function",
      "name": "setOracle",
      "inputs": [
        {
          "name": "_oracle",
          "type": "address",
          "internalType": "address"
        }
      ],
      "outputs": [],
      "stateMutability": "nonpayable"
    },
    {
      "type": "function",
      "name": "transferOwnership",
      "inputs": [
        {
          "name": "_newOwner",
          "type": "address",
          "internalType": "address"
        }
      ],
      "outputs": [],
      "stateMutability": "nonpayable"
    },
    {
      "type": "function",
      "name": "updateCreditScore",
      "inputs": [
        {
          "name": "user",
          "type": "address",
          "internalType": "address"
        },
        {
          "name": "newScore",
          "type": "uint256",
          "internalType": "uint256"
        }
      ],
      "outputs": [],
      "stateMutability": "nonpayable"
    },
    {
      "type": "function",
      "name": "userReputation",
      "inputs": [
        {
          "name": "",
          "type": "address",
          "internalType": "address"
        }
      ],
      "outputs": [
        {
          "name": "ensNode",
          "type": "bytes32",
          "internalType": "bytes32"
        },
        {
          "name": "isRegistered",
          "type": "bool",
          "internalType": "bool"
        },
        {
          "name": "hasDefaulted",
          "type": "bool",
          "internalType": "bool"
        },
        {
          "name": "defaultCount",
          "type": "uint256",
          "internalType": "uint256"
        },
        {
          "name": "creditScore",
          "type": "uint256",
          "internalType": "uint256"
        }
      ],
      "stateMutability": "view"
    },
    {
      "type": "event",
      "name": "DefaultCleared",
      "inputs": [
        {
          "name": "user",
          "type": "address",
          "indexed": true,
          "internalType": "address"
        }
      ],
      "anonymous": false
    },
    {
      "type": "event",
      "name": "DefaultRecorded",
      "inputs": [
        {
          "name": "user",
          "type": "address",
          "indexed": true,
          "internalType": "address"
        },
        {
          "name": "totalDefaults",
          "type": "uint256",
          "indexed": false,
          "internalType": "uint256"
        }
      ],
      "anonymous": false
    },
    {
      "type": "event",
      "name": "ReputationUpdated",
      "inputs": [
        {
          "name": "user",
          "type": "address",
          "indexed": true,
          "internalType": "address"
        },
        {
          "name": "status",
          "type": "string",
          "indexed": false,
          "internalType": "string"
        },
        {
          "name": "creditScore",
          "type": "uint256",
          "indexed": false,
          "internalType": "uint256"
        }
      ],
      "anonymous": false
    },
    {
      "type": "event",
      "name": "UserRegistered",
      "inputs": [
        {
          "name": "user",
          "type": "address",
          "indexed": true,
          "internalType": "address"
        },
        {
          "name": "ensNode",
          "type": "bytes32",
          "indexed": true,
          "internalType": "bytes32"
        }
      ],
      "anonymous": false
    },
    {
      "type": "error",
      "name": "AlreadyRegistered",
      "inputs": []
    },
    {
      "type": "error",
      "name": "InvalidNode",
      "inputs": []
    },
    {
      "type": "error",
      "name": "NotApproved",
      "inputs": []
    },
    {
      "type": "error",
      "name": "NotOracle",
      "inputs": []
    },
    {
      "type": "error",
      "name": "NotOwner",
      "inputs": []
    },
    {
      "type": "error",
      "name": "NotRegistered",
      "inputs": []
    }
  ],
  "bytecode": {
    "object": "0x608060405234801561000f575f5ffd5b50604051611f3f380380611f3f83398181016040528101906100319190610114565b3360015f6101000a81548173ffffffffffffffffffffffffffffffffffffffff021916908373ffffffffffffffffffffffffffffffffffffffff160217905550805f5f6101000a81548173ffffffffffffffffffffffffffffffffffffffff021916908373ffffffffffffffffffffffffffffffffffffffff1602179055505061013f565b5f5ffd5b5f73ffffffffffffffffffffffffffffffffffffffff82169050919050565b5f6100e3826100ba565b9050919050565b6100f3816100d9565b81146100fd575f5ffd5b50565b5f8151905061010e816100ea565b92915050565b5f60208284031215610129576101286100b6565b5b5f61013684828501610100565b91505092915050565b611df38061014c5f395ff3fe608060405234801561000f575f5ffd5b506004361061011f575f3560e01c8063c3c5a547116100ab578063e6fa9ea41161006f578063e6fa9ea41461030b578063f2e55d8c14610329578063f2fde38b14610345578063f669f68514610361578063fb29b9d0146103915761011f565b8063c3c5a54714610229578063d308f81d14610259578063d3dd2bdf14610289578063e060f67b146102b9578063e503bb05146102d75761011f565b80637adbf973116100f25780637adbf9731461019757806385e96917146101b35780638da5cb5b146101d157806397dffb02146101ef578063be81c4d41461020d5761011f565b80630354d062146101235780631405828a1461014157806332a05ca31461015d57806365352f9d1461017b575b5f5ffd5b61012b6103af565b6040516101389190611718565b60405180910390f35b61015b60048036038101906101569190611796565b6103e8565b005b610165610651565b6040516101729190611718565b60405180910390f35b610195600480360381019061019091906117f4565b61068a565b005b6101b160048036038101906101ac9190611796565b6108ae565b005b6101bb610976565b6040516101c8919061188d565b60405180910390f35b6101d9610989565b6040516101e691906118b5565b60405180910390f35b6101f76109ae565b6040516102049190611718565b60405180910390f35b61022760048036038101906102229190611796565b6109e7565b005b610243600480360381019061023e9190611796565b610c89565b60405161025091906118e8565b60405180910390f35b610273600480360381019061026e9190611796565b610cde565b60405161028091906118e8565b60405180910390f35b6102a3600480360381019061029e9190611796565b610d34565b6040516102b09190611910565b60405180910390f35b6102c1610d7d565b6040516102ce91906118b5565b60405180910390f35b6102f160048036038101906102ec9190611796565b610da1565b604051610302959493929190611941565b60405180910390f35b610313610dec565b6040516103209190611718565b60405180910390f35b610343600480360381019061033e91906119bc565b610e25565b005b61035f600480360381019061035a9190611796565b6111f7565b005b61037b60048036038101906103769190611796565b6112c0565b6040516103889190611910565b60405180910390f35b610399611309565b6040516103a69190611718565b60405180910390f35b6040518060400160405280600b81526020017f6261636b722e73636f726500000000000000000000000000000000000000000081525081565b5f5f9054906101000a900473ffffffffffffffffffffffffffffffffffffffff1673ffffffffffffffffffffffffffffffffffffffff163373ffffffffffffffffffffffffffffffffffffffff161461046d576040517f1bc2178f00000000000000000000000000000000000000000000000000000000815260040160405180910390fd5b5f60025f8373ffffffffffffffffffffffffffffffffffffffff1673ffffffffffffffffffffffffffffffffffffffff1681526020019081526020015f209050806001015f9054906101000a900460ff166104f4576040517faba4733900000000000000000000000000000000000000000000000000000000815260040160405180910390fd5b5f8160010160016101000a81548160ff02191690831515021790555061037a8160030154101561053a57600a816003015f8282546105329190611a14565b925050819055505b610581815f01546040518060400160405280600781526020017f434c4541524544000000000000000000000000000000000000000000000000008152508360030154611342565b8173ffffffffffffffffffffffffffffffffffffffff167f3343c43a5ffd4b61ec3ed1367f73becb56c6102dc68b6b268ca49e9f35ccba3560405160405180910390a28173ffffffffffffffffffffffffffffffffffffffff167f03fad0158a18b8e7724897436ce145a3f02a261857f2049bb4baf7297bbb14536040518060400160405280600781526020017f434c4541524544000000000000000000000000000000000000000000000000008152508360030154604051610645929190611a47565b60405180910390a25050565b6040518060400160405280600c81526020017f6261636b722e737461747573000000000000000000000000000000000000000081525081565b5f5f9054906101000a900473ffffffffffffffffffffffffffffffffffffffff1673ffffffffffffffffffffffffffffffffffffffff163373ffffffffffffffffffffffffffffffffffffffff161461070f576040517f1bc2178f00000000000000000000000000000000000000000000000000000000815260040160405180910390fd5b5f60025f8473ffffffffffffffffffffffffffffffffffffffff1673ffffffffffffffffffffffffffffffffffffffff1681526020019081526020015f209050806001015f9054906101000a900460ff16610796576040517faba4733900000000000000000000000000000000000000000000000000000000815260040160405180910390fd5b61012c8210156107a65761012c91505b6103848211156107b65761038491505b8181600301819055505f8160010160019054906101000a900460ff16610811576040518060400160405280600d81526020017f474f4f445f5354414e44494e4700000000000000000000000000000000000000815250610848565b6040518060400160405280600981526020017f44454641554c54454400000000000000000000000000000000000000000000008152505b9050610858825f01548285611342565b8373ffffffffffffffffffffffffffffffffffffffff167f03fad0158a18b8e7724897436ce145a3f02a261857f2049bb4baf7297bbb145382856040516108a0929190611a47565b60405180910390a250505050565b60015f9054906101000a900473ffffffffffffffffffffffffffffffffffffffff1673ffffffffffffffffffffffffffffffffffffffff163373ffffffffffffffffffffffffffffffffffffffff1614610934576040517f30cd747100000000000000000000000000000000000000000000000000000000815260040160405180910390fd5b805f5f6101000a81548173ffffffffffffffffffffffffffffffffffffffff021916908373ffffffffffffffffffffffffffffffffffffffff16021790555050565b6e0c2e074ec69a0dfb2997ba6c7d2e1e81565b60015f9054906101000a900473ffffffffffffffffffffffffffffffffffffffff1681565b6040518060400160405280600981526020017f44454641554c544544000000000000000000000000000000000000000000000081525081565b5f5f9054906101000a900473ffffffffffffffffffffffffffffffffffffffff1673ffffffffffffffffffffffffffffffffffffffff163373ffffffffffffffffffffffffffffffffffffffff1614610a6c576040517f1bc2178f00000000000000000000000000000000000000000000000000000000815260040160405180910390fd5b5f60025f8373ffffffffffffffffffffffffffffffffffffffff1673ffffffffffffffffffffffffffffffffffffffff1681526020019081526020015f209050806001015f9054906101000a900460ff16610af3576040517faba4733900000000000000000000000000000000000000000000000000000000815260040160405180910390fd5b60018160010160016101000a81548160ff021916908315150217905550806002015f815480929190610b2490611a75565b919050555061015e81600301541115610b57576032816003015f828254610b4b9190611abc565b92505081905550610b63565b61012c81600301819055505b610baa815f01546040518060400160405280600981526020017f44454641554c54454400000000000000000000000000000000000000000000008152508360030154611342565b8173ffffffffffffffffffffffffffffffffffffffff167f1d9938520c17ffed9a7f1a4489b2bdb04e5570305d789b904cccb81ba0e2d1b68260020154604051610bf49190611910565b60405180910390a28173ffffffffffffffffffffffffffffffffffffffff167f03fad0158a18b8e7724897436ce145a3f02a261857f2049bb4baf7297bbb14536040518060400160405280600981526020017f44454641554c54454400000000000000000000000000000000000000000000008152508360030154604051610c7d929190611a47565b60405180910390a25050565b5f60025f8373ffffffffffffffffffffffffffffffffffffffff1673ffffffffffffffffffffffffffffffffffffffff1681526020019081526020015f206001015f9054906101000a900460ff169050919050565b5f60025f8373ffffffffffffffffffffffffffffffffffffffff1673ffffffffffffffffffffffffffffffffffffffff1681526020019081526020015f2060010160019054906101000a900460ff169050919050565b5f60025f8373ffffffffffffffffffffffffffffffffffffffff1673ffffffffffffffffffffffffffffffffffffffff1681526020019081526020015f20600301549050919050565b5f5f9054906101000a900473ffffffffffffffffffffffffffffffffffffffff1681565b6002602052805f5260405f205f91509050805f015490806001015f9054906101000a900460ff16908060010160019054906101000a900460ff16908060020154908060030154905085565b6040518060400160405280600781526020017f434c45415245440000000000000000000000000000000000000000000000000081525081565b60025f3373ffffffffffffffffffffffffffffffffffffffff1673ffffffffffffffffffffffffffffffffffffffff1681526020019081526020015f206001015f9054906101000a900460ff1615610ea9576040517f3a81d6fc00000000000000000000000000000000000000000000000000000000815260040160405180910390fd5b5f5f1b8103610ee4576040517f30812d4200000000000000000000000000000000000000000000000000000000815260040160405180910390fd5b5f6e0c2e074ec69a0dfb2997ba6c7d2e1e73ffffffffffffffffffffffffffffffffffffffff166302571be3836040518263ffffffff1660e01b8152600401610f2d9190611aef565b602060405180830381865afa158015610f48573d5f5f3e3d5ffd5b505050506040513d601f19601f82011682018060405250810190610f6c9190611b1c565b90503373ffffffffffffffffffffffffffffffffffffffff168173ffffffffffffffffffffffffffffffffffffffff1614610fdc576040517f08c379a0000000000000000000000000000000000000000000000000000000008152600401610fd390611b91565b60405180910390fd5b6e0c2e074ec69a0dfb2997ba6c7d2e1e73ffffffffffffffffffffffffffffffffffffffff1663e985e9c533306040518363ffffffff1660e01b8152600401611026929190611baf565b602060405180830381865afa158015611041573d5f5f3e3d5ffd5b505050506040513d601f19601f820116820180604052508101906110659190611c00565b6110a4576040517f08c379a000000000000000000000000000000000000000000000000000000000815260040161109b90611c75565b60405180910390fd5b6040518060a001604052808381526020016001151581526020015f151581526020015f815260200161028a81525060025f3373ffffffffffffffffffffffffffffffffffffffff1673ffffffffffffffffffffffffffffffffffffffff1681526020019081526020015f205f820151815f01556020820151816001015f6101000a81548160ff02191690831515021790555060408201518160010160016101000a81548160ff02191690831515021790555060608201518160020155608082015181600301559050506111af826040518060400160405280600d81526020017f474f4f445f5354414e44494e470000000000000000000000000000000000000081525061028a611342565b813373ffffffffffffffffffffffffffffffffffffffff167f4c5d15f5779ae1ecd7d55bd3283d898e29c35743d172bd7b83a16e17bc0afe2a60405160405180910390a35050565b60015f9054906101000a900473ffffffffffffffffffffffffffffffffffffffff1673ffffffffffffffffffffffffffffffffffffffff163373ffffffffffffffffffffffffffffffffffffffff161461127d576040517f30cd747100000000000000000000000000000000000000000000000000000000815260040160405180910390fd5b8060015f6101000a81548173ffffffffffffffffffffffffffffffffffffffff021916908373ffffffffffffffffffffffffffffffffffffffff16021790555050565b5f60025f8373ffffffffffffffffffffffffffffffffffffffff1673ffffffffffffffffffffffffffffffffffffffff1681526020019081526020015f20600201549050919050565b6040518060400160405280600d81526020017f474f4f445f5354414e44494e470000000000000000000000000000000000000081525081565b5f6e0c2e074ec69a0dfb2997ba6c7d2e1e73ffffffffffffffffffffffffffffffffffffffff16630178b8bf856040518263ffffffff1660e01b815260040161138b9190611aef565b602060405180830381865afa1580156113a6573d5f5f3e3d5ffd5b505050506040513d601f19601f820116820180604052508101906113ca9190611b1c565b90505f73ffffffffffffffffffffffffffffffffffffffff168173ffffffffffffffffffffffffffffffffffffffff1603611405575061154a565b5f8190508073ffffffffffffffffffffffffffffffffffffffff166310f13a8c866040518060400160405280600c81526020017f6261636b722e7374617475730000000000000000000000000000000000000000815250876040518463ffffffff1660e01b815260040161147b93929190611c93565b5f604051808303815f87803b158015611492575f5ffd5b505af19250505080156114a3575060015b508073ffffffffffffffffffffffffffffffffffffffff166310f13a8c866040518060400160405280600b81526020017f6261636b722e73636f72650000000000000000000000000000000000000000008152506115008761154f565b6040518463ffffffff1660e01b815260040161151e93929190611c93565b5f604051808303815f87803b158015611535575f5ffd5b505af1925050508015611546575060015b5050505b505050565b60605f8203611595576040518060400160405280600181526020017f300000000000000000000000000000000000000000000000000000000000000081525090506116a3565b5f8290505f5b5f82146115c45780806115ad90611a75565b915050600a826115bd9190611d03565b915061159b565b5f8167ffffffffffffffff8111156115df576115de611d33565b5b6040519080825280601f01601f1916602001820160405280156116115781602001600182028036833780820191505090505b5090505b5f851461169c576001826116299190611abc565b9150600a856116389190611d60565b60306116449190611a14565b60f81b81838151811061165a57611659611d90565b5b60200101907effffffffffffffffffffffffffffffffffffffffffffffffffffffffffffff191690815f1a905350600a856116959190611d03565b9450611615565b8093505050505b919050565b5f81519050919050565b5f82825260208201905092915050565b8281835e5f83830152505050565b5f601f19601f8301169050919050565b5f6116ea826116a8565b6116f481856116b2565b93506117048185602086016116c2565b61170d816116d0565b840191505092915050565b5f6020820190508181035f83015261173081846116e0565b905092915050565b5f5ffd5b5f73ffffffffffffffffffffffffffffffffffffffff82169050919050565b5f6117658261173c565b9050919050565b6117758161175b565b811461177f575f5ffd5b50565b5f813590506117908161176c565b92915050565b5f602082840312156117ab576117aa611738565b5b5f6117b884828501611782565b91505092915050565b5f819050919050565b6117d3816117c1565b81146117dd575f5ffd5b50565b5f813590506117ee816117ca565b92915050565b5f5f6040838503121561180a57611809611738565b5b5f61181785828601611782565b9250506020611828858286016117e0565b9150509250929050565b5f819050919050565b5f61185561185061184b8461173c565b611832565b61173c565b9050919050565b5f6118668261183b565b9050919050565b5f6118778261185c565b9050919050565b6118878161186d565b82525050565b5f6020820190506118a05f83018461187e565b92915050565b6118af8161175b565b82525050565b5f6020820190506118c85f8301846118a6565b92915050565b5f8115159050919050565b6118e2816118ce565b82525050565b5f6020820190506118fb5f8301846118d9565b92915050565b61190a816117c1565b82525050565b5f6020820190506119235f830184611901565b92915050565b5f819050919050565b61193b81611929565b82525050565b5f60a0820190506119545f830188611932565b61196160208301876118d9565b61196e60408301866118d9565b61197b6060830185611901565b6119886080830184611901565b9695505050505050565b61199b81611929565b81146119a5575f5ffd5b50565b5f813590506119b681611992565b92915050565b5f602082840312156119d1576119d0611738565b5b5f6119de848285016119a8565b91505092915050565b7f4e487b71000000000000000000000000000000000000000000000000000000005f52601160045260245ffd5b5f611a1e826117c1565b9150611a29836117c1565b9250828201905080821115611a4157611a406119e7565b5b92915050565b5f6040820190508181035f830152611a5f81856116e0565b9050611a6e6020830184611901565b9392505050565b5f611a7f826117c1565b91507fffffffffffffffffffffffffffffffffffffffffffffffffffffffffffffffff8203611ab157611ab06119e7565b5b600182019050919050565b5f611ac6826117c1565b9150611ad1836117c1565b9250828203905081811115611ae957611ae86119e7565b5b92915050565b5f602082019050611b025f830184611932565b92915050565b5f81519050611b168161176c565b92915050565b5f60208284031215611b3157611b30611738565b5b5f611b3e84828501611b08565b91505092915050565b7f4e6f7420454e53206f776e6572000000000000000000000000000000000000005f82015250565b5f611b7b600d836116b2565b9150611b8682611b47565b602082019050919050565b5f6020820190508181035f830152611ba881611b6f565b9050919050565b5f604082019050611bc25f8301856118a6565b611bcf60208301846118a6565b9392505050565b611bdf816118ce565b8114611be9575f5ffd5b50565b5f81519050611bfa81611bd6565b92915050565b5f60208284031215611c1557611c14611738565b5b5f611c2284828501611bec565b91505092915050565b7f4d75737420617070726f7665204261636b7220666972737400000000000000005f82015250565b5f611c5f6018836116b2565b9150611c6a82611c2b565b602082019050919050565b5f6020820190508181035f830152611c8c81611c53565b9050919050565b5f606082019050611ca65f830186611932565b8181036020830152611cb881856116e0565b90508181036040830152611ccc81846116e0565b9050949350505050565b7f4e487b71000000000000000000000000000000000000000000000000000000005f52601260045260245ffd5b5f611d0d826117c1565b9150611d18836117c1565b925082611d2857611d27611cd6565b5b828204905092915050565b7f4e487b71000000000000000000000000000000000000000000000000000000005f52604160045260245ffd5b5f611d6a826117c1565b9150611d75836117c1565b925082611d8557611d84611cd6565b5b828206905092915050565b7f4e487b71000000000000000000000000000000000000000000000000000000005f52603260045260245ffdfea264697066735822122072d03bb435c667ee1c0f4e5f6e08873348ce0b824c7352980c21adcdedb7dcf664736f6c634300081e0033",
    "linkReferences": {}
  },
  "methodIdentifiers": {
    "BACKR_SCORE_KEY()": "0354d062",
    "BACKR_STATUS_KEY()": "32a05ca3",
    "ENS_REGISTRY()": "85e96917",
    "STATUS_CLEARED()": "e6fa9ea4",
    "STATUS_DEFAULTED()": "97dffb02",
    "STATUS_GOOD()": "fb29b9d0",
    "backrOracle()": "e060f67b",
    "clearDefault(address)": "1405828a",
    "getCreditScore(address)": "d3dd2bdf",
    "getDefaultCount(address)": "f669f685",
    "isCurrentlyDefaulted(address)": "d308f81d",
    "isRegistered(address)": "c3c5a547",
    "markDefault(address)": "be81c4d4",
    "owner()": "8da5cb5b",
    "registerENS(bytes32)": "f2e55d8c",
    "setOracle(address)": "7adbf973",
    "transferOwnership(address)": "f2fde38b",
    "updateCreditScore(address,uint256)": "65352f9d",
    "userReputation(address)": "e503bb05"
  },
  "id": 25
}