{
  "abi": [
    {
      "type": "constructor",
      "inputs": [
        {
          "name": "_oracle",
          "type": "address",
          "internalType": "address"
        },
        {
          "name": "_ensRegistrar",
          "type": "address",
          "internalType": "address"
        }
      ],
      "stateMutability": "nonpayable"
    },
    {
      "type": "function",
      "name": "BURN_ADDRESS",
      "inputs": [],
      "outputs": [
        {
          "name": "",
          "type": "address",
          "internalType": "address"
        }
      ],
      "stateMutability": "view"
    },
    {
      "type": "function",
      "name": "ENS_REGISTRAR",
      "inputs": [],
      "outputs": [
        {
          "name": "",
          "type": "address",
          "internalType": "contract IERC721"
        }
      ],
      "stateMutability": "view"
    },
    {
      "type": "function",
      "name": "GRACE_PERIOD",
      "inputs": [],
      "outputs": [
        {
          "name": "",
          "type": "uint256",
          "internalType": "uint256"
        }
      ],
      "stateMutability": "view"
    },
    {
      "type": "function",
      "name": "backrOracle",
      "inputs": [],
      "outputs": [
        {
          "name": "",
          "type": "address",
          "internalType": "address"
        }
      ],
      "stateMutability": "view"
    },
    {
      "type": "function",
      "name": "canBeSlashed",
      "inputs": [
        {
          "name": "user",
          "type": "address",
          "internalType": "address"
        }
      ],
      "outputs": [
        {
          "name": "",
          "type": "bool",
          "internalType": "bool"
        }
      ],
      "stateMutability": "view"
    },
    {
      "type": "function",
      "name": "clearDefault",
      "inputs": [
        {
          "name": "user",
          "type": "address",
          "internalType": "address"
        }
      ],
      "outputs": [],
      "stateMutability": "nonpayable"
    },
    {
      "type": "function",
      "name": "hasStakedENS",
      "inputs": [
        {
          "name": "user",
          "type": "address",
          "internalType": "address"
        }
      ],
      "outputs": [
        {
          "name": "",
          "type": "bool",
          "internalType": "bool"
        }
      ],
      "stateMutability": "view"
    },
    {
      "type": "function",
      "name": "isInDefault",
      "inputs": [
        {
          "name": "user",
          "type": "address",
          "internalType": "address"
        }
      ],
      "outputs": [
        {
          "name": "",
          "type": "bool",
          "internalType": "bool"
        }
      ],
      "stateMutability": "view"
    },
    {
      "type": "function",
      "name": "markDefault",
      "inputs": [
        {
          "name": "user",
          "type": "address",
          "internalType": "address"
        }
      ],
      "outputs": [],
      "stateMutability": "nonpayable"
    },
    {
      "type": "function",
      "name": "onERC721Received",
      "inputs": [
        {
          "name": "",
          "type": "address",
          "internalType": "address"
        },
        {
          "name": "",
          "type": "address",
          "internalType": "address"
        },
        {
          "name": "",
          "type": "uint256",
          "internalType": "uint256"
        },
        {
          "name": "",
          "type": "bytes",
          "internalType": "bytes"
        }
      ],
      "outputs": [
        {
          "name": "",
          "type": "bytes4",
          "internalType": "bytes4"
        }
      ],
      "stateMutability": "pure"
    },
    {
      "type": "function",
      "name": "owner",
      "inputs": [],
      "outputs": [
        {
          "name": "",
          "type": "address",
          "internalType": "address"
        }
      ],
      "stateMutability": "view"
    },
    {
      "type": "function",
      "name": "setOracle",
      "inputs": [
        {
          "name": "_newOracle",
          "type": "address",
          "internalType": "address"
        }
      ],
      "outputs": [],
      "stateMutability": "nonpayable"
    },
    {
      "type": "function",
      "name": "slashENS",
      "inputs": [
        {
          "name": "user",
          "type": "address",
          "internalType": "address"
        }
      ],
      "outputs": [],
      "stateMutability": "nonpayable"
    },
    {
      "type": "function",
      "name": "stakeENS",
      "inputs": [
        {
          "name": "tokenId",
          "type": "uint256",
          "internalType": "uint256"
        }
      ],
      "outputs": [],
      "stateMutability": "nonpayable"
    },
    {
      "type": "function",
      "name": "stakedENS",
      "inputs": [
        {
          "name": "",
          "type": "address",
          "internalType": "address"
        }
      ],
      "outputs": [
        {
          "name": "owner",
          "type": "address",
          "internalType": "address"
        },
        {
          "name": "tokenId",
          "type": "uint256",
          "internalType": "uint256"
        },
        {
          "name": "stakedAt",
          "type": "uint256",
          "internalType": "uint256"
        },
        {
          "name": "isDefaulted",
          "type": "bool",
          "internalType": "bool"
        },
        {
          "name": "defaultedAt",
          "type": "uint256",
          "internalType": "uint256"
        }
      ],
      "stateMutability": "view"
    },
    {
      "type": "function",
      "name": "timeUntilSlashable",
      "inputs": [
        {
          "name": "user",
          "type": "address",
          "internalType": "address"
        }
      ],
      "outputs": [
        {
          "name": "",
          "type": "uint256",
          "internalType": "uint256"
        }
      ],
      "stateMutability": "view"
    },
    {
      "type": "function",
      "name": "tokenToStaker",
      "inputs": [
        {
          "name": "",
          "type": "uint256",
          "internalType": "uint256"
        }
      ],
      "outputs": [
        {
          "name": "",
          "type": "address",
          "internalType": "address"
        }
      ],
      "stateMutability": "view"
    },
    {
      "type": "function",
      "name": "transferOwnership",
      "inputs": [
        {
          "name": "_newOwner",
          "type": "address",
          "internalType": "address"
        }
      ],
      "outputs": [],
      "stateMutability": "nonpayable"
    },
    {
      "type": "function",
      "name": "unstakeENS",
      "inputs": [],
      "outputs": [],
      "stateMutability": "nonpayable"
    },
    {
      "type": "event",
      "name": "DefaultCleared",
      "inputs": [
        {
          "name": "user",
          "type": "address",
          "indexed": true,
          "internalType": "address"
        },
        {
          "name": "timestamp",
          "type": "uint256",
          "indexed": false,
          "internalType": "uint256"
        }
      ],
      "anonymous": false
    },
    {
      "type": "event",
      "name": "DefaultMarked",
      "inputs": [
        {
          "name": "user",
          "type": "address",
          "indexed": true,
          "internalType": "address"
        },
        {
          "name": "timestamp",
          "type": "uint256",
          "indexed": false,
          "internalType": "uint256"
        }
      ],
      "anonymous": false
    },
    {
      "type": "event",
      "name": "ENSSlashed",
      "inputs": [
        {
          "name": "user",
          "type": "address",
          "indexed": true,
          "internalType": "address"
        },
        {
          "name": "tokenId",
          "type": "uint256",
          "indexed": true,
          "internalType": "uint256"
        },
        {
          "name": "slashedBy",
          "type": "address",
          "indexed": false,
          "internalType": "address"
        },
        {
          "name": "timestamp",
          "type": "uint256",
          "indexed": false,
          "internalType": "uint256"
        }
      ],
      "anonymous": false
    },
    {
      "type": "event",
      "name": "ENSStaked",
      "inputs": [
        {
          "name": "user",
          "type": "address",
          "indexed": true,
          "internalType": "address"
        },
        {
          "name": "tokenId",
          "type": "uint256",
          "indexed": true,
          "internalType": "uint256"
        },
        {
          "name": "timestamp",
          "type": "uint256",
          "indexed": false,
          "internalType": "uint256"
        }
      ],
      "anonymous": false
    },
    {
      "type": "event",
      "name": "ENSUnstaked",
      "inputs": [
        {
          "name": "user",
          "type": "address",
          "indexed": true,
          "internalType": "address"
        },
        {
          "name": "tokenId",
          "type": "uint256",
          "indexed": true,
          "internalType": "uint256"
        },
        {
          "name": "timestamp",
          "type": "uint256",
          "indexed": false,
          "internalType": "uint256"
        }
      ],
      "anonymous": false
    },
    {
      "type": "event",
      "name": "OracleUpdated",
      "inputs": [
        {
          "name": "oldOracle",
          "type": "address",
          "indexed": true,
          "internalType": "address"
        },
        {
          "name": "newOracle",
          "type": "address",
          "indexed": true,
          "internalType": "address"
        }
      ],
      "anonymous": false
    },
    {
      "type": "error",
      "name": "AlreadyStaked",
      "inputs": []
    },
    {
      "type": "error",
      "name": "GracePeriodNotOver",
      "inputs": []
    },
    {
      "type": "error",
      "name": "InvalidTokenId",
      "inputs": []
    },
    {
      "type": "error",
      "name": "NotDefaulted",
      "inputs": []
    },
    {
      "type": "error",
      "name": "NotOracle",
      "inputs": []
    },
    {
      "type": "error",
      "name": "NotOwner",
      "inputs": []
    },
    {
      "type": "error",
      "name": "NotStaked",
      "inputs": []
    },
    {
      "type": "error",
      "name": "StillDefaulted",
      "inputs": []
    }
  ],
  "bytecode": {
    "object": "0x60a060405234801561000f575f5ffd5b506040516119f03803806119f083398181016040528101906100319190610149565b3360015f6101000a81548173ffffffffffffffffffffffffffffffffffffffff021916908373ffffffffffffffffffffffffffffffffffffffff160217905550815f5f6101000a81548173ffffffffffffffffffffffffffffffffffffffff021916908373ffffffffffffffffffffffffffffffffffffffff1602179055508073ffffffffffffffffffffffffffffffffffffffff1660808173ffffffffffffffffffffffffffffffffffffffff16815250505050610187565b5f5ffd5b5f73ffffffffffffffffffffffffffffffffffffffff82169050919050565b5f610118826100ef565b9050919050565b6101288161010e565b8114610132575f5ffd5b50565b5f815190506101438161011f565b92915050565b5f5f6040838503121561015f5761015e6100eb565b5b5f61016c85828601610135565b925050602061017d85828601610135565b9150509250929050565b60805161183c6101b45f395f818161065c0152818161097301528181610d2c0152610fe1015261183c5ff3fe608060405234801561000f575f5ffd5b506004361061011f575f3560e01c80638da5cb5b116100ab578063c1a287e21161006f578063c1a287e214610319578063e060f67b14610337578063f2fde38b14610355578063fccc281314610371578063ffe6e75c1461038f5761011f565b80638da5cb5b146102895780638e3b2c1a146102a75780638fcf3152146102d7578063aaf504a0146102e1578063be81c4d4146102fd5761011f565b80633426b8eb116100f25780633426b8eb146101bf57806338097112146101ef5780634217eb161461021f578063602742131461023d5780637adbf9731461026d5761011f565b80631405828a14610123578063150b7a021461013f5780631d40f8aa1461016f57806332f03077146101a3575b5f5ffd5b61013d6004803603810190610138919061140e565b6103bf565b005b610159600480360381019061015491906114cd565b610537565b604051610166919061158b565b60405180910390f35b6101896004803603810190610184919061140e565b61054b565b60405161019a9594939291906115dc565b60405180910390f35b6101bd60048036038101906101b8919061162d565b6105a8565b005b6101d960048036038101906101d4919061140e565b610885565b6040516101e69190611658565b60405180910390f35b6102096004803603810190610204919061162d565b610941565b6040516102169190611671565b60405180910390f35b610227610971565b60405161023491906116e5565b60405180910390f35b6102576004803603810190610252919061140e565b610995565b60405161026491906116fe565b60405180910390f35b6102876004803603810190610282919061140e565b6109ea565b005b610291610b2c565b60405161029e9190611671565b60405180910390f35b6102c160048036038101906102bc919061140e565b610b51565b6040516102ce91906116fe565b60405180910390f35b6102df610b9d565b005b6102fb60048036038101906102f6919061140e565b610e07565b005b6103176004803603810190610312919061140e565b6110c1565b005b61032161123a565b60405161032e9190611658565b60405180910390f35b61033f611241565b60405161034c9190611671565b60405180910390f35b61036f600480360381019061036a919061140e565b611265565b005b61037961132e565b6040516103869190611671565b60405180910390f35b6103a960048036038101906103a4919061140e565b611334565b6040516103b691906116fe565b60405180910390f35b5f5f9054906101000a900473ffffffffffffffffffffffffffffffffffffffff1673ffffffffffffffffffffffffffffffffffffffff163373ffffffffffffffffffffffffffffffffffffffff1614610444576040517f1bc2178f00000000000000000000000000000000000000000000000000000000815260040160405180910390fd5b5f60025f8373ffffffffffffffffffffffffffffffffffffffff1673ffffffffffffffffffffffffffffffffffffffff1681526020019081526020015f2090505f8160010154036104c1576040517f039f2e1800000000000000000000000000000000000000000000000000000000815260040160405180910390fd5b5f816003015f6101000a81548160ff0219169083151502179055505f81600401819055508173ffffffffffffffffffffffffffffffffffffffff167fc06fc6374b1acd10a74e0dc58a38222244180202ecd7b1c1f40548ed38a4a1f54260405161052b9190611658565b60405180910390a25050565b5f63150b7a0260e01b905095945050505050565b6002602052805f5260405f205f91509050805f015f9054906101000a900473ffffffffffffffffffffffffffffffffffffffff1690806001015490806002015490806003015f9054906101000a900460ff16908060040154905085565b5f60025f3373ffffffffffffffffffffffffffffffffffffffff1673ffffffffffffffffffffffffffffffffffffffff1681526020019081526020015f206001015414610621576040517f0ae3514d00000000000000000000000000000000000000000000000000000000815260040160405180910390fd5b5f810361065a576040517f3f6cc76800000000000000000000000000000000000000000000000000000000815260040160405180910390fd5b7f000000000000000000000000000000000000000000000000000000000000000073ffffffffffffffffffffffffffffffffffffffff166323b872dd3330846040518463ffffffff1660e01b81526004016106b793929190611717565b5f604051808303815f87803b1580156106ce575f5ffd5b505af11580156106e0573d5f5f3e3d5ffd5b505050506040518060a001604052803373ffffffffffffffffffffffffffffffffffffffff1681526020018281526020014281526020015f151581526020015f81525060025f3373ffffffffffffffffffffffffffffffffffffffff1673ffffffffffffffffffffffffffffffffffffffff1681526020019081526020015f205f820151815f015f6101000a81548173ffffffffffffffffffffffffffffffffffffffff021916908373ffffffffffffffffffffffffffffffffffffffff16021790555060208201518160010155604082015181600201556060820151816003015f6101000a81548160ff021916908315150217905550608082015181600401559050503360035f8381526020019081526020015f205f6101000a81548173ffffffffffffffffffffffffffffffffffffffff021916908373ffffffffffffffffffffffffffffffffffffffff160217905550803373ffffffffffffffffffffffffffffffffffffffff167f01d252e2bb567db8b17479d927408f89241e9c6d0c4d7ccd98efcf4a533e5bd34260405161087a9190611658565b60405180910390a350565b5f5f60025f8473ffffffffffffffffffffffffffffffffffffffff1673ffffffffffffffffffffffffffffffffffffffff1681526020019081526020015f209050806003015f9054906101000a900460ff16610904577fffffffffffffffffffffffffffffffffffffffffffffffffffffffffffffffff91505061093c565b5f62093a8082600401546109189190611779565b905080421061092b575f9250505061093c565b428161093791906117ac565b925050505b919050565b6003602052805f5260405f205f915054906101000a900473ffffffffffffffffffffffffffffffffffffffff1681565b7f000000000000000000000000000000000000000000000000000000000000000081565b5f60025f8373ffffffffffffffffffffffffffffffffffffffff1673ffffffffffffffffffffffffffffffffffffffff1681526020019081526020015f206003015f9054906101000a900460ff169050919050565b60015f9054906101000a900473ffffffffffffffffffffffffffffffffffffffff1673ffffffffffffffffffffffffffffffffffffffff163373ffffffffffffffffffffffffffffffffffffffff1614610a70576040517f30cd747100000000000000000000000000000000000000000000000000000000815260040160405180910390fd5b8073ffffffffffffffffffffffffffffffffffffffff165f5f9054906101000a900473ffffffffffffffffffffffffffffffffffffffff1673ffffffffffffffffffffffffffffffffffffffff167f078c3b417dadf69374a59793b829c52001247130433427049317bde56607b1b760405160405180910390a3805f5f6101000a81548173ffffffffffffffffffffffffffffffffffffffff021916908373ffffffffffffffffffffffffffffffffffffffff16021790555050565b60015f9054906101000a900473ffffffffffffffffffffffffffffffffffffffff1681565b5f5f60025f8473ffffffffffffffffffffffffffffffffffffffff1673ffffffffffffffffffffffffffffffffffffffff1681526020019081526020015f206001015414159050919050565b5f60025f3373ffffffffffffffffffffffffffffffffffffffff1673ffffffffffffffffffffffffffffffffffffffff1681526020019081526020015f2090505f816001015403610c1a576040517f039f2e1800000000000000000000000000000000000000000000000000000000815260040160405180910390fd5b806003015f9054906101000a900460ff1615610c62576040517f99b1523300000000000000000000000000000000000000000000000000000000815260040160405180910390fd5b5f8160010154905060035f8281526020019081526020015f205f6101000a81549073ffffffffffffffffffffffffffffffffffffffff021916905560025f3373ffffffffffffffffffffffffffffffffffffffff1673ffffffffffffffffffffffffffffffffffffffff1681526020019081526020015f205f5f82015f6101000a81549073ffffffffffffffffffffffffffffffffffffffff0219169055600182015f9055600282015f9055600382015f6101000a81549060ff0219169055600482015f905550507f000000000000000000000000000000000000000000000000000000000000000073ffffffffffffffffffffffffffffffffffffffff166323b872dd3033846040518463ffffffff1660e01b8152600401610d8793929190611717565b5f604051808303815f87803b158015610d9e575f5ffd5b505af1158015610db0573d5f5f3e3d5ffd5b50505050803373ffffffffffffffffffffffffffffffffffffffff167f3f3253b99d433c100f36aa20e00d6bc767cbe636fe3c8a5d923eb76b9446734442604051610dfb9190611658565b60405180910390a35050565b5f60025f8373ffffffffffffffffffffffffffffffffffffffff1673ffffffffffffffffffffffffffffffffffffffff1681526020019081526020015f2090505f816001015403610e84576040517f039f2e1800000000000000000000000000000000000000000000000000000000815260040160405180910390fd5b806003015f9054906101000a900460ff16610ecb576040517f1c65ea5800000000000000000000000000000000000000000000000000000000815260040160405180910390fd5b62093a808160040154610ede9190611779565b421015610f17576040517fd15f73b500000000000000000000000000000000000000000000000000000000815260040160405180910390fd5b5f8160010154905060035f8281526020019081526020015f205f6101000a81549073ffffffffffffffffffffffffffffffffffffffff021916905560025f8473ffffffffffffffffffffffffffffffffffffffff1673ffffffffffffffffffffffffffffffffffffffff1681526020019081526020015f205f5f82015f6101000a81549073ffffffffffffffffffffffffffffffffffffffff0219169055600182015f9055600282015f9055600382015f6101000a81549060ff0219169055600482015f905550507f000000000000000000000000000000000000000000000000000000000000000073ffffffffffffffffffffffffffffffffffffffff166323b872dd3061dead846040518463ffffffff1660e01b815260040161103e93929190611717565b5f604051808303815f87803b158015611055575f5ffd5b505af1158015611067573d5f5f3e3d5ffd5b50505050808373ffffffffffffffffffffffffffffffffffffffff167f4208c262c996a246b620064cbe5cb896dbd4a054a920b8dd778d8ee75c584e1c33426040516110b49291906117df565b60405180910390a3505050565b5f5f9054906101000a900473ffffffffffffffffffffffffffffffffffffffff1673ffffffffffffffffffffffffffffffffffffffff163373ffffffffffffffffffffffffffffffffffffffff1614611146576040517f1bc2178f00000000000000000000000000000000000000000000000000000000815260040160405180910390fd5b5f60025f8373ffffffffffffffffffffffffffffffffffffffff1673ffffffffffffffffffffffffffffffffffffffff1681526020019081526020015f2090505f8160010154036111c3576040517f039f2e1800000000000000000000000000000000000000000000000000000000815260040160405180910390fd5b6001816003015f6101000a81548160ff0219169083151502179055504281600401819055508173ffffffffffffffffffffffffffffffffffffffff167fd84dbf323bde9307d4e28ef61deab3924c2935af780704158edd3795b41ddd7b4260405161122e9190611658565b60405180910390a25050565b62093a8081565b5f5f9054906101000a900473ffffffffffffffffffffffffffffffffffffffff1681565b60015f9054906101000a900473ffffffffffffffffffffffffffffffffffffffff1673ffffffffffffffffffffffffffffffffffffffff163373ffffffffffffffffffffffffffffffffffffffff16146112eb576040517f30cd747100000000000000000000000000000000000000000000000000000000815260040160405180910390fd5b8060015f6101000a81548173ffffffffffffffffffffffffffffffffffffffff021916908373ffffffffffffffffffffffffffffffffffffffff16021790555050565b61dead81565b5f5f60025f8473ffffffffffffffffffffffffffffffffffffffff1673ffffffffffffffffffffffffffffffffffffffff1681526020019081526020015f209050806003015f9054906101000a900460ff1680156113a4575062093a8081600401546113a09190611779565b4210155b915050919050565b5f5ffd5b5f5ffd5b5f73ffffffffffffffffffffffffffffffffffffffff82169050919050565b5f6113dd826113b4565b9050919050565b6113ed816113d3565b81146113f7575f5ffd5b50565b5f81359050611408816113e4565b92915050565b5f60208284031215611423576114226113ac565b5b5f611430848285016113fa565b91505092915050565b5f819050919050565b61144b81611439565b8114611455575f5ffd5b50565b5f8135905061146681611442565b92915050565b5f5ffd5b5f5ffd5b5f5ffd5b5f5f83601f84011261148d5761148c61146c565b5b8235905067ffffffffffffffff8111156114aa576114a9611470565b5b6020830191508360018202830111156114c6576114c5611474565b5b9250929050565b5f5f5f5f5f608086880312156114e6576114e56113ac565b5b5f6114f3888289016113fa565b9550506020611504888289016113fa565b945050604061151588828901611458565b935050606086013567ffffffffffffffff811115611536576115356113b0565b5b61154288828901611478565b92509250509295509295909350565b5f7fffffffff0000000000000000000000000000000000000000000000000000000082169050919050565b61158581611551565b82525050565b5f60208201905061159e5f83018461157c565b92915050565b6115ad816113d3565b82525050565b6115bc81611439565b82525050565b5f8115159050919050565b6115d6816115c2565b82525050565b5f60a0820190506115ef5f8301886115a4565b6115fc60208301876115b3565b61160960408301866115b3565b61161660608301856115cd565b61162360808301846115b3565b9695505050505050565b5f60208284031215611642576116416113ac565b5b5f61164f84828501611458565b91505092915050565b5f60208201905061166b5f8301846115b3565b92915050565b5f6020820190506116845f8301846115a4565b92915050565b5f819050919050565b5f6116ad6116a86116a3846113b4565b61168a565b6113b4565b9050919050565b5f6116be82611693565b9050919050565b5f6116cf826116b4565b9050919050565b6116df816116c5565b82525050565b5f6020820190506116f85f8301846116d6565b92915050565b5f6020820190506117115f8301846115cd565b92915050565b5f60608201905061172a5f8301866115a4565b61173760208301856115a4565b61174460408301846115b3565b949350505050565b7f4e487b71000000000000000000000000000000000000000000000000000000005f52601160045260245ffd5b5f61178382611439565b915061178e83611439565b92508282019050808211156117a6576117a561174c565b5b92915050565b5f6117b682611439565b91506117c183611439565b92508282039050818111156117d9576117d861174c565b5b92915050565b5f6040820190506117f25f8301856115a4565b6117ff60208301846115b3565b939250505056fea26469706673582212204e77f731bfcf6a2689264746134ecee8bee3e843968c304cd4bff2957a954cf464736f6c634300081e0033",
    "linkReferences": {}
  },
  "methodIdentifiers": {
    "BURN_ADDRESS()": "fccc2813",
    "ENS_REGISTRAR()": "4217eb16",
    "GRACE_PERIOD()": "c1a287e2",
    "backrOracle()": "e060f67b",
    "canBeSlashed(address)": "ffe6e75c",
    "clearDefault(address)": "1405828a",
    "hasStakedENS(address)": "8e3b2c1a",
    "isInDefault(address)": "60274213",
    "markDefault(address)": "be81c4d4",
    "onERC721Received(address,address,uint256,bytes)": "150b7a02",
    "owner()": "8da5cb5b",
    "setOracle(address)": "7adbf973",
    "slashENS(address)": "aaf504a0",
    "stakeENS(uint256)": "32f03077",
    "stakedENS(address)": "1d40f8aa",
    "timeUntilSlashable(address)": "3426b8eb",
    "tokenToStaker(uint256)": "38097112",
    "transferOwnership(address)": "f2fde38b",
    "unstakeENS()": "8fcf3152"
  },
  "id": 23
}